S01600005450335F454E5452454741424C452E73726563FF
S11300000C943B000C9458000C9458000C94580029
S11300100C9458000C9458000C9458000C945800FC
S11300200C9458000C9458000C9458000C94200420
S11300300C9458000C9458000C9436040C945800FA
S11300400C9458000C9458000C949A030C94D50307
S11300500C9458000C9458000C9458000C945800BC
S11300600C9458000C945800F202FC0207032F036E
S11300703B034803520311241FBECFEFD8E0DEBF79
S1130080CDBF11E0A0E0B1E0ECE8F1E102C00590E1
S11300900D92A437B107D9F721E0A4E7B1E001C07C
S11300A01D92AF3AB207E1F70E945C030C94C408B6
S11300B00C9400001092B90088E98093B80084E0A1
S11300C08093BC00089584EA8093BC008091BC00B6
S11300D08823E4F708958093BB0084E88093BC00F0
S11300E08091BC008823E4F70895811104C084EC56
S11300F08093BC0003C084E88093BC008091BC0062
S11301008823E4F78091BB00089584E98093BC00C0
S1130110089580917401089582E091E00E9416058B
S11301208AE191E00E9416058FE191E00E94160594
S11301308AE291E00E94160586E391E00E9416058A
S113014081E0809375010895E1ECF0E0808180689E
S1130150808320E030E0A9C1E091AC01F0E0E756F3
S1130160FE4F80818F3461F58091AC0190E001965F
S113017062E170E00E94AC05FC01E756FE4F80810D
S11301808E34F1F48091AC0190E0029662E170E06B
S11301900E94AC05FC01E756FE4F80818D3081F44E
S11301A0EBEAF1E0818190E0039662E170E00E9465
S11301B0AC05818382E08093750121E030E075C154
S11301C0E091AC01F0E0E756FE4F80818F34D1F529
S11301D08091AC0190E0019662E170E00E94AC0570
S11301E0FC01E756FE4F8081863461F58091AC01B5
S11301F090E0029662E170E00E94AC05FC01E756D3
S1130200FE4F80818634F1F48091AC0190E0039636
S113021062E170E00E94AC05FC01E756FE4F80816C
S11302208D3081F4EBEAF1E0818190E0049662E1A3
S113023070E00E94AC05818383E08093750121E026
S113024030E033C1E091AC01F0E0E756FE4F80812D
S1130250833509F093C08091AC0190E0019662E18E
S113026070E00E94AC05FC01E756FE4F80818534A6
S113027009F084C08091AC0190E0029662E170E0E4
S11302800E94AC05FC01E756FE4F8081843509F0DD
S113029075C08091AC0190E0039662E170E00E9429
S11302A0AC05FC01E756FE4F8081803209F066C040
S11302B08091AC0190E0049662E170E00E94AC058C
S11302C0FC01E756FE4F8081813409F057C08091CC
S11302D0AC0190E0059662E170E00E94AC05FC017F
S11302E0E756FE4F80818C3409F048C08091AC0100
S11302F090E0069662E170E00E94AC05FC01E756CE
S1130300FE4F80818134D1F58091AC0190E0079655
S113031062E170E00E94AC05FC01E756FE4F80816B
S1130320823561F58091AC0190E0089662E170E05D
S11303300E94AC05FC01E756FE4F80818D34F1F438
S11303408091AC0190E0099662E170E00E94AC05F6
S1130350FC01E756FE4F80818D3081F4EBEAF1E039
S1130360818190E00A9662E170E00E94AC0581838D
S113037085E08093750121E030E097C0E091AC0105
S1130380F0E0E756FE4F8081833509F084C0809108
S1130390AC0190E0019662E170E00E94AC05FC01C2
S11303A0E756FE4F8081853409F075C08091AC0119
S11303B090E0029662E170E00E94AC05FC01E75611
S11303C0FE4F8081843509F066C08091AC0190E0D5
S11303D0039662E170E00E94AC05FC01E756FE4F13
S11303E08081803209F057C08091AC0190E004967E
S11303F062E170E00E94AC05FC01E756FE4F80818B
S1130400843509F048C08091AC0190E0059662E122
S113041070E00E94AC05FC01E756FE4F80818934F0
S1130420D1F58091AC0190E0069662E170E00E9403
S1130430AC05FC01E756FE4F80818D3461F5809157
S1130440AC0190E0079662E170E00E94AC05FC010B
S1130450E756FE4F80818534F1F48091AC0190E041
S1130460089662E170E00E94AC05FC01E756FE4F7D
S113047080818D3081F4EBEAF1E0818190E009968E
S113048062E170E00E94AC05818384E08093750191
S113049021E030E00AC0EBEAF1E0818190E00196CE
S11304A062E170E00E94AC0581832115310509F4F5
S11304B053CEE1ECF0E080818F7780830895CF9272
S11304C0DF92EF92FF920F931F93CF93DF93CDB7F9
S11304D0DEB76A970FB6F894DEBF0FBECDBFCE016C
S11304E04A967C018E01075E1F4F9E01285E3F4F96
S11304F0AE01495E5F4FBE016A5E7F4F05970E9461
S11305006A046701C8017801015011099E01295E3E
S11305103F4FAE014A5E5F4FBE016B5E7F4F48970F
S11305200E945105CE0101960E94160581E0809338
S113053001016A960FB6F894DEBF0FBECDBFDF91FE
S1130540CF911F910F91FF90EF90DF90CF9008957E
S113055081E080937501089581E080937501089589
S1130560E1E8F0E080818860808380818560808319
S113057088E09DE390938900809388001092850021
S11305801092840008950E94B8040E945A000E94A8
S1130590B00278948CE391E00E94160581E0809388
S11305A07501089580910101811105C0EFE6F0E025
S11305B080818260808380910101813029F4EFE69B
S11305C0F0E080818D7F80830895E09174018E2F07
S11305D090E08730910508F06EC0FC01EC5CFF4FA1
S11305E00C94C00580917501813009F064C01092AB
S11305F0750180937401089580917501813009F02B
S11306005AC01092750182E080937401089580911C
S11306107501833079F018F4823031F01DC08430D4
S113062079F0853099F018C01092750183E08093B9
S1130630740108951092750184E080937401089503
S11306401092750185E080937401089510927501EC
S113065086E0809374010895109275010895809145
S11306600001813021F4109200010E94D20282E044
S113067080937401089580910001811105C081E087
S1130680809300010E94D20282E080937401089555
S113069080917501813079F41092750182E0809324
S11306A07401089580917501813029F410927501C7
S11306B082E080937401089584B5826084BD85B519
S11306C0836085BD89EF87BDEEE6F0E080818260BE
S11306D08083EBEAF1E010821182EDEAF1E011820D
S11306E0108280910101811105C00E945F0281E0A6
S11306F0809301010E94890080937801823089F0FF
S113070028F4882341F0813049F0EBCF853079F02B
S1130710863051F0E6CF0E94C302E3CF0E948C00E2
S1130720E0CF0E94A400DDCF0E94AC02DACF0E9489
S1130730A802D7CF1F920F920FB60F9211242F93B6
S11307403F934F935F936F937F938F939F93AF9355
S1130750BF93EF93FF932091C600EBEAF1E0808111
S113076090E0019662E170E00E94AC0591819817D7
S113077039F0DF01E081F0E0E756FE4F20838C93EF
S11307802A3011F40E94E502FF91EF91BF91AF91DD
S11307909F918F917F916F915F914F913F912F9195
S11307A00F900FBE0F901F9018951F920F920FB6C7
S11307B00F9211242F933F934F935F936F937F93E3
S11307C08F939F93AF93BF93EF93FF93ADEAB1E001
S11307D01196EC911197F0E0E758FE4F80818093D9
S11307E0C60011968C9190E001968F7190789923B0
S11307F024F40197806E9F6F0196EDEAF1E0818306
S113080091818081981305C0E1ECF0E080818F7DB7
S1130810808380917501813011F40E94E502FF917B
S1130820EF91BF91AF919F918F917F916F915F9164
S11308304F913F912F910F900FBE0F901F901895DD
S11308401F920F920FB60F9211248F938091000183
S1130850811106C080910101813011F410920101CF
S11308608F910F900FBE0F901F9018951F920F92AB
S11308700FB60F9211242F933F934F935F936F936F
S11308807F938F939F93AF93BF93EF93FF93809145
S11308907601909177010196909377018093760188
S11308A08436910534F010927701109276010E94FB
S11308B0E502FF91EF91BF91AF919F918F917F914D
S11308C06F915F914F913F912F910F900FBE0F90B9
S11308D01F9018958F929F92AF92BF92CF92DF9202
S11308E0EF92FF920F931F93CF93DF934C015B0121
S11308F06A01E9010E94630080ED0E946B0080E0C0
S11309000E946B000E9485000E94630081ED0E949A
S11309106B0080E00E947500F401808380E00E94F7
S11309207500F501808380E00E947500F6018083E4
S113093080E00E94750080E00E947500888380E05A
S11309400E947500F801808381E00E947500F70120
S113095080830E948500DF91CF911F910F91FF90BA
S1130960EF90DF90CF90BF90AF909F908F900895BD
S11309708AB182608AB98AB18E7F8AB9E2ECF0E0EA
S113098080818660808387E68093C400E1ECF0E098
S11309908081886180830895982F92959F70990F24
S11309A0292F220F220F920F8F70890F08958F9293
S11309B09F92AF92BF92CF92DF92EF92FF920F93EA
S11309C01F93CF93DF934C015B016A01E901FC01A2
S11309D080810E94CC04F4018083F50180810E940F
S11309E0CC04F5018083F60180810E94CC04F601D9
S11309F0808388810E94CC048883F80180810E94CE
S1130A00CC04F8018083F70180810E94CC04F701B3
S1130A108083DF91CF911F910F91FF90EF90DF9032
S1130A20CF90BF90AF909F908F90089560E02DC0BD
S1130A302091AD0130E02F5F3F4F2F713078332389
S1130A4034F421503109206E3F6F2F5F3F4F4091A6
S1130A50AE0150E02417350759F3ADEAB1E0EC914B
S1130A60F0E0E758FE4F70832C9130E02F5F3F4F4A
S1130A702F713078332334F421503109206E3F6FC5
S1130A802F5F3F4F2093AD016F5FFC01E60FF11D17
S1130A9070817111CDCFE1ECF0E0808180628083C0
S1130AA008952F923F924F925F926F927F928F920E
S1130AB09F92AF92BF92CF92DF92EF92FF920F93E9
S1130AC01F93CF93DF93382E292E3B014A015901FE
S1130AD02801E70176018E019201A501B401C30149
S1130AE00E94D704F3015081F4014081F501308163
S1130AF0F60120819881F20180811F925F931F92F9
S1130B004F931F923F931F922F931F929F931F9275
S1130B108F938CE491E09F938F932F923F920E9446
S1130B20DA058DB79EB740960FB6F8949EBF0FBEF8
S1130B308DBFDF91CF911F910F91FF90EF90DF90C8
S1130B40CF90BF90AF909F908F907F906F905F9069
S1130B504F903F902F90089597FB072E16F4009422
S1130B6007D077FD09D00E94C60507FC05D03EF4E6
S1130B70909581959F4F0895709561957F4F089545
S1130B80EE0FFF1F0590F491E02D0994AA1BBB1BE7
S1130B9051E107C0AA1FBB1FA617B70710F0A61B79
S1130BA0B70B881F991F5A95A9F780959095BC019A
S1130BB0CD010895AEE0B0E0E0EEF5E00C949B08C2
S1130BC00D891E8986E08C831A8309838FEF9FE742
S1130BD09E838D83AE01475E5F4F6F89788DCE0112
S1130BE001960E94FC05EF81F885E00FF11F108249
S1130BF02E96E4E00C94B708ABE0B0E0E2E0F6E057
S1130C000C948D086C017B018A01FC011782168209
S1130C10838181FFCCC1CE0101963C01F601938111
S1130C20F70193FD859193FF81917F01882309F456
S1130C30BAC1853239F493FD859193FF81917F0187
S1130C40853229F4B60190E00E94F307E7CF912C96
S1130C50212C312CFFE1F315D8F08B3279F038F4E4
S1130C60803279F08332A1F4232D20611DC08D32AE
S1130C7061F0803369F4232D216016C0832D8260D6
S1130C80382EE32DE4603E2E2AC0F32DF8601DC0FB
S1130C9037FC2DC020ED280F2A3040F08E32B9F4F5
S1130CA036FC81C1232D2064322E19C036FE06C0C5
S1130CB08AE0989E200D1124922E11C0EAE02E9E07
S1130CC0200D1124222EF32DF0623F2E08C08C3605
S1130CD021F4832D8068382E02C0883641F4F70150
S1130CE093FD859193FF81917F018111B3CF982F5B
S1130CF09F7D9554933028F40C5F1F4F9FE3998395
S1130D000DC0833631F0833771F0833509F059C053
S1130D1021C0F801808189830E5F1F4F882483944A
S1130D20912C530113C02801F2E04F0E511CF8011D
S1130D30A080B18036FE03C0692D70E002C06FEF61
S1130D407FEFC5010E94E8074C018201F32DFF7774
S1130D503F2E16C0280122E0420E511CF801A0804B
S1130D60B18036FE03C0692D70E002C06FEF7FEFE3
S1130D70C5010E94DD074C01F32DF0683F2E82016E
S1130D8033FC1BC0822D90E088169906B0F4B6019E
S1130D9080E290E00E94F3072A94F4CFF50137FC37
S1130DA0859137FE81915F01B60190E00E94F307BF
S1130DB021102A9421E0821A91088114910471F778
S1130DC0E8C0843611F0893641F5F80137FE07C0D2
S1130DD060817181828193810C5F1F4F08C06081A3
S1130DE07181072E000C880B990B0E5F1F4FF32D9A
S1130DF0FF763F2E97FF09C0909580957095619579
S1130E007F4F8F4F9F4FF0683F2E2AE030E0A301C1
S1130E100E942F08882E861845C0853731F4232D6B
S1130E202F7EB22E2AE030E025C0932D997FB92E73
S1130E308F36C1F018F4883579F0B5C0803719F0D1
S1130E40883721F0B0C0E92FE061BE2EB4FE0DC09A
S1130E50FB2DF460BF2E09C034FE0AC0292F266082
S1130E60B22E06C028E030E005C020E130E002C028
S1130E7020E132E0F801B7FE07C060817181828110
S1130E8093810C5F1F4F06C06081718180E090E008
S1130E900E5F1F4FA3010E942F08882E8618FB2D7A
S1130EA0FF773F2E36FE0DC0232D2E7FA22E8914F0
S1130EB058F434FE0BC032FC09C0832D8E7EA82E5C
S1130EC005C0B82CA32C03C0B82C01C0B92CA4FEB7
S1130ED00FC0FE01E80DF11D8081803321F49A2DAD
S1130EE0997EA92E09C0A2FE06C0B394B39404C08F
S1130EF08A2D867809F0B394A3FC11C0A0FE06C025
S1130F00B21488F4280C922C9B180EC0B21460F40E
S1130F10B60180E290E00E94F307B394F7CFB214D5
S1130F2018F42B1802C0982C212CA4FE10C0B60172
S1130F3080E390E00E94F307A2FE17C0A1FC03C067
S1130F4088E790E002C088E590E0B6010CC08A2DE5
S1130F50867859F0A1FE02C08BE201C080E2A7FCB2
S1130F608DE2B60190E00E94F307891438F4B601CB
S1130F7080E390E00E94F3079A94F7CF8A94F301F8
S1130F80E80DF11D8081B60190E00E94F307811005
S1130F90F5CF222009F442CEB60180E290E00E940F
S1130FA0F3072A94F6CFF6018681978102C08FEF6A
S1130FB09FEF2B96E2E10C94A908FC010590615087
S1130FC070400110D8F7809590958E0F9F1F08955B
S1130FD0FC016150704001900110D8F78095909504
S1130FE08E0F9F1F08950F931F93CF93DF93FB01E1
S1130FF0238121FD03C08FEF9FEF2CC022FF16C079
S113100046815781248135814217530744F4A081D6
S1131010B1819D012F5F3F4F318320838C932681C3
S113102037812F5F3F4F3783268314C08B01EC0138
S1131030FB010084F185E02D0995892BE1F6D801A7
S113104016968D919C911797019617969C938E9363
S11310501697CE01DF91CF911F910F910895FA0158
S1131060AA27283051F1203181F1E8946F936E7FE3
S11310706E5F7F4F8F4F9F4FAF4FB1E03ED0B4E0D4
S11310803CD0670F781F891F9A1FA11D680F791F15
S11310908A1F911DA11D6A0F711D811D911DA11D26
S11310A020D009F468943F912AE0269F1124301936
S11310B0305D3193DEF6CF010895462F4770405DD1
S11310C04193B3E00FD0C9F7F6CF462F4F70405D80
S11310D04A3318F0495D31FD4052419302D0A9F7DB
S11310E0EACFB4E0A6959795879577956795BA95D5
S11310F0C9F700976105710508959B01AC010A2E9B
S113110006945795479537952795BA95C9F7620F71
S1131110731F841F951FA01D08952F923F924F9215
S11311205F926F927F928F929F92AF92BF92CF9273
S1131130DF92EF92FF920F931F93CF93DF93CDB77C
S1131140DEB7CA1BDB0B0FB6F894DEBF0FBECDBFF4
S113115009942A88398848885F846E847D848C84C5
S11311609B84AA84B984C884DF80EE80FD800C81CE
S11311701B81AA81B981CE0FD11D0FB6F894DEBFB1
S10F11800FBECDBFED010895F894FFCF21
S113118C010153656C656363696F6E6520756E61EF
S113119C206F7063696F6E0D0A004F4E0D0A005379
S11311AC45542054494D450D0A0053455420414C97
S11311BC41524D0D0A004F46460D0A004269656EB8
S11311CC76656E69646F203A440D0A0046454348BF
S11311DC413A20253032752F253032752F25303287
S11311EC7520253032753A253032753A25303275F2
S10711FC0D0A0000D4
S9030000FC
