:100000000C9434000C9451000C9451000C94510049
:100010000C9451000C9451000C9451000C9451001C
:100020000C9451000C9451000C9451000C9452010A
:100030000C9451000C9451000C9451000C945100FC
:100040000C9451000C9451000C94C8000C941A01AB
:100050000C9451000C9451000C9451000C945100DC
:100060000C9451000C94510011241FBECFEFD8E026
:10007000DEBFCDBF12E0A0E0B1E0EEEDF3E102C0E3
:1000800005900D92A430B107D9F722E0A4E0B2E0C8
:1000900001C01D92A134B207E1F70E9482000C94C6
:1000A000ED090C9400001092B90088E98093B80023
:1000B00084E08093BC00089584EA8093BC00809122
:1000C000BC008823E4F708958093BB0084E8809304
:1000D000BC008091BC008823E4F70895811104C01E
:1000E00084EC8093BC0003C084E88093BC008091C2
:1000F000BC008823E4F78091BB00089584E98093D5
:10010000BC000895EDE3F2E010821182EFE3F2E02B
:10011000118210820E94B9050E94E301E1ECF0E037
:1001200080818068808380910A02813011F40E946E
:10013000F80180910101811109C080910001813095
:1001400029F40E94B80381E08093010180910A02A2
:100150008250823020F40E94C10510920A028091E0
:100160000A02853041F480910001813021F40E941F
:100170002D0510920A0280910A02843079F680914E
:100180000001813059F60E943A0410920A02C6CF4B
:100190001F920F920FB60F9211242F935F936F93BC
:1001A0007F938F939F93AF93BF93EF93FF9310929F
:1001B00000012091C600283059F4EDE3F2E080817F
:1001C00090E0019762E170E00E94DB0680831CC032
:1001D000EDE3F2E0808190E0019662E170E00E9440
:1001E000DB069181981739F0DF01E081F0E0E55DF1
:1001F000FD4F20838C932D3039F481E080930A02E7
:1002000080930001809301012093C600E1ECF0E0AF
:10021000808180628083FF91EF91BF91AF919F9128
:100220008F917F916F915F912F910F900FBE0F90E3
:100230001F9018951F920F920FB60F9211248F9353
:100240009F93AF93BF93EF93FF93EFE3F2E091811E
:1002500080819817B9F0DF01E181F0E0E55FFD4FA3
:1002600080818093C60011968C9190E001968F71E9
:100270009078992324F40197806E9F6F0196809364
:10028000400205C0E1ECF0E080818F7D8083FF912A
:10029000EF91BF91AF919F918F910F900FBE0F90F3
:1002A0001F9018951F920F920FB60F9211248F93E3
:1002B00080910101813011F4109201018F910F9012
:1002C0000FBE0F901F901895EF92FF920F931F9300
:1002D000CF93DF93F82E162FD42FC22F0E945C00ED
:1002E00080ED0E94640080E00E9464008F2D0E94D7
:1002F0006400812F0E9464008D2F8F730E94640020
:1003000081E00E9464008C2F0E946400802F0E9474
:1003100064008E2D0E9464000E947E00DF91CF91C8
:100320001F910F91FF90EF9008958F929F92AF923F
:10033000BF92CF92DF92EF92FF920F931F93CF93D2
:10034000DF934C015B016A01E9010E945C0080EDD2
:100350000E94640080E00E9464000E947E000E946F
:100360005C0081ED0E94640080E00E946E00F40158
:10037000808380E00E946E00F501808380E00E940F
:100380006E00F601808380E00E946E0080E00E9493
:100390006E00888380E00E946E00F801808381E017
:1003A0000E946E00F70180830E947E00DF91CF9152
:1003B0001F910F91FF90EF90DF90CF90BF90AF9083
:1003C0009F908F90089583E091E00E9445068BE115
:1003D00091E00E94450680E291E00E9445068BE292
:1003E00091E00E94450687E391E00E94450608954A
:1003F000E1ECF0E080818068808320E030E0AEC1F5
:10040000E0913E02F0E0E55DFD4F80818F3471F5B3
:1004100080913E0290E0019662E170E00E94DB066E
:10042000FC01E55DFD4F80818E3401F580913E0237
:1004300090E0029662E170E00E94DB06FC01E55D5F
:10044000FD4F80818D3091F4EDE3F2E0818190E009
:10045000039662E170E00E94DB0681831092020144
:1004600082E080930A0221E030E078C1E0913E0210
:10047000F0E0E55DFD4F80818F34E9F580913E022B
:1004800090E0019662E170E00E94DB06FC01E55D10
:10049000FD4F8081863479F580913E0290E002968E
:1004A00062E170E00E94DB06FC01E55DFD4F8081AA
:1004B000863409F580913E0290E0039662E170E097
:1004C0000E94DB06FC01E55DFD4F80818D3099F4D3
:1004D000EDE3F2E0818190E0049662E170E00E9439
:1004E000DB06818381E08093020183E080930A022E
:1004F00021E030E033C1E0913E02F0E0E55DFD4FE8
:100500008081833509F093C080913E0290E001968E
:1005100062E170E00E94DB06FC01E55DFD4F808139
:10052000853409F084C080913E0290E0029662E139
:1005300070E00E94DB06FC01E55DFD4F80818435A3
:1005400009F075C080913E0290E0039662E170E090
:100550000E94DB06FC01E55DFD4F8081803209F0E1
:1005600066C080913E0290E0049662E170E00E94D5
:10057000DB06FC01E55DFD4F8081813409F057C049
:1005800080913E0290E0059662E170E00E94DB06F9
:10059000FC01E55DFD4F80818C3409F048C08091FD
:1005A0003E0290E0069662E170E00E94DB06FC01EC
:1005B000E55DFD4F80818134D1F580913E0290E070
:1005C000079662E170E00E94DB06FC01E55DFD4FED
:1005D0008081823561F580913E0290E0089662E16B
:1005E00070E00E94DB06FC01E55DFD4F80818D34EB
:1005F000F1F480913E0290E0099662E170E00E9481
:10060000DB06FC01E55DFD4F80818D3081F4EDE37B
:10061000F2E0818190E00A9662E170E00E94DB06E0
:10062000818385E080930A0221E030E097C0E09169
:100630003E02F0E0E55DFD4F8081833509F084C026
:1006400080913E0290E0019662E170E00E94DB063C
:10065000FC01E55DFD4F8081853409F075C0809116
:100660003E0290E0029662E170E00E94DB06FC012F
:10067000E55DFD4F8081843509F066C080913E02C2
:1006800090E0039662E170E00E94DB06FC01E55D0C
:10069000FD4F8081803209F057C080913E0290E08A
:1006A000049662E170E00E94DB06FC01E55DFD4F0F
:1006B0008081843509F048C080913E0290E0059623
:1006C00062E170E00E94DB06FC01E55DFD4F808188
:1006D0008934D1F580913E0290E0069662E170E0A7
:1006E0000E94DB06FC01E55DFD4F80818D3461F5E4
:1006F00080913E0290E0079662E170E00E94DB0686
:10070000FC01E55DFD4F80818534F1F480913E026E
:1007100090E0089662E170E00E94DB06FC01E55D76
:10072000FD4F80818D3081F4EDE3F2E0818190E036
:10073000099662E170E00E94DB06818384E0809389
:100740000A0221E030E00AC0EDE3F2E0818190E0AE
:10075000019662E170E00E94DB068183211531057C
:1007600009F44ECEE1ECF0E080818F77808308952C
:10077000CF92DF92EF92FF920F931F93CF93DF936D
:10078000CDB7DEB76A970FB6F894DEBF0FBECDBF08
:10079000CE014A967C018E01075E1F4F9E01285EA6
:1007A0003F4FAE01495E5F4FBE016A5E7F4F0597C6
:1007B0000E9495018D890E94FB05082F8E890E9459
:1007C000FB05182F8F890E94FB059091060291303E
:1007D00099F49091070289130FC0809108021813B1
:1007E0000BC080910902081307C081E080930402C6
:1007F000109206021092050280910402882399F05B
:1008000080910502853050F48DE391E00E94450609
:10081000809105028F5F809305021DC01092040233
:100820001092050218C0CE014A966C0101977C0116
:100830008E01085E1F4F9E01295E3F4FAE014A5E4A
:100840005F4FBE016B5E7F4F48970E948006CE01CE
:1008500001960E9445066A960FB6F894DEBF0FBE59
:10086000CDBFDF91CF911F910F91FF90EF90DF905F
:10087000CF900895BF92CF92DF92EF92FF920F93A5
:100880001F93CF93DF93CDB7DEB761970FB6F89480
:10089000DEBF0FBECDBFE1ECF0E0808180688083D9
:1008A00087E491E00E94450689E591E00E944506B3
:1008B00020E030E024C0E0913E02F0E0E55DFD4F35
:1008C00080818D3059F0883051F0E1E0F0E0EC0F9C
:1008D000FD1FE20FF11D80832F5F01C031E0EDE3CA
:1008E000F2E0818190E0019662E170E00E94DB0617
:1008F0008183EDE3F2E0908181819813DCCF332393
:10090000C1F3898190E0C0979A81880F182F110F49
:10091000110F810F182F190F10538C8190E0C09781
:100920009D81880F082F000F000F800F082F090FDF
:1009300000538F8190E0C0979885880F282F220F51
:10094000220F820F890F0F2EF0EDBF2EF02DB80E63
:100950008A8590E0C0979B85880FF82EFF0CFF0CCE
:100960008F0D890F0F2EF0EDFF2EF02DF80E8D85D7
:1009700090E0C0979E85880F282F220F220F820FAC
:10098000890F0F2EF0EDDF2EF02DD80E288930E0E4
:10099000205331099989220F322F330F330F230F40
:1009A000290F2053183178F40C3368F48BE38B153E
:1009B00050F0FF2041F08FE18F1528F0DD2019F075
:1009C0008CE08D1528F48DE691E00E94450635C037
:1009D0008B818A3361F48E818A3349F48985803230
:1009E00031F48C858F3219F48F858F3229F081E8AC
:1009F00091E00E94450621C0822F0E94E805E82E62
:100A00008D2D0E94E805C82E8F2D0E94E805D82E56
:100A1000812F0E94E805F82E802F0E94E805182FEC
:100A20008B2D0E94E8050C2D2D2D4F2D612F0E943E
:100A3000640184E991E00E94450661960FB6F8943E
:100A4000DEBF0FBECDBFDF91CF911F910F91FF9001
:100A5000EF90DF90CF90BF900895CF93DF93CDB705
:100A6000DEB728970FB6F894DEBF0FBECDBF8DEA74
:100A700091E00E9445068FEB91E00E944506E1EC73
:100A8000F0E080818068808320E030E022C0E09147
:100A90003E02F0E0E55DFD4F80818D3049F0E1E000
:100AA000F0E0EC0FFD1FE20FF11D80832F5F01C00E
:100AB00031E0EDE3F2E0818190E0019662E170E0E7
:100AC0000E94DB068183EDE3F2E09081818198133F
:100AD000DECF3323C1F3898190E0C0979A81880FDC
:100AE000282F220F220F820F890F80538093070235
:100AF0008C8190E0C0979D81880F282F220F220FB4
:100B0000820F890F8053809308028F8190E0C097F5
:100B10009885880F282F220F220F820F890F80536C
:100B20008093090281E080930602109204021092E1
:100B300005028AEC91E00E94450628960FB6F894CB
:100B4000DEBF0FBECDBFDF91CF910895E1E8F0E0A9
:100B500080818860808380818560808388E09DE3D8
:100B600090938900809388001092850010928400F1
:100B700008950E94D4050E9453000E94A60578940F
:100B8000089580910201811105C0EFE6F0E08081B7
:100B90008260808380910201813029F4EFE6F0E0E9
:100BA00080818D7F808308958AB182608AB98AB1FD
:100BB0008E7F8AB9E2ECF0E080818660808387E6F0
:100BC0008093C400E1ECF0E0808188618083089527
:100BD0009DEC899F912D112496959695969520E1EF
:100BE000929FA0011124990F292F220F220F920FFB
:100BF000891B842B0895982F92959F70990F292F08
:100C0000220F220F920F8F70890F08958F929F925B
:100C1000AF92BF92CF92DF92EF92FF920F931F930A
:100C2000CF93DF934C015B016A01E901FC018081F4
:100C30000E94FB05F4018083F50180810E94FB0581
:100C4000F5018083F60180810E94FB05F601808317
:100C500088810E94FB058883F80180810E94FB0542
:100C6000F8018083F70180810E94FB05F7018083F2
:100C7000DF91CF911F910F91FF90EF90DF90CF9078
:100C8000BF90AF909F908F90089560E02DC020910D
:100C90003F0230E02F5F3F4F2F713078332334F421
:100CA00021503109206E3F6F2F5F3F4F409140022E
:100CB00050E02417350759F3AFE3B2E0EC91F0E0D0
:100CC000E55FFD4F70832C9130E02F5F3F4F2F7118
:100CD0003078332334F421503109206E3F6F2F5F79
:100CE0003F4F20933F026F5FFC01E60FF11D7081C3
:100CF0007111CDCFE1ECF0E08081806280830895B6
:100D00002F923F924F925F926F927F928F929F921B
:100D1000AF92BF92CF92DF92EF92FF920F931F9309
:100D2000CF93DF93382E292E3B014A015901280128
:100D3000E70176018E019201A501B401C3010E9471
:100D40000606F3015081F4014081F5013081F6017E
:100D500020819881F20180811F925F931F924F93AF
:100D60001F923F931F922F931F929F931F928F93D7
:100D70008DED91E09F938F932F923F920E940307F6
:100D80008DB79EB740960FB6F8949EBF0FBE8DBF2D
:100D9000DF91CF911F910F91FF90EF90DF90CF9057
:100DA000BF90AF909F908F907F906F905F904F908B
:100DB0003F902F90089597FB072E16F4009407D0CC
:100DC00077FD09D00E94EF0607FC05D03EF4909510
:100DD00081959F4F0895709561957F4F0895AA1B47
:100DE000BB1B51E107C0AA1FBB1FA617B70710F016
:100DF000A61BB70B881F991F5A95A9F78095909548
:100E0000BC01CD010895AEE0B0E0E9E0F7E00C945C
:100E1000C4090D891E8986E08C831A8309838FEFAC
:100E20009FE79E838D83AE01475E5F4F6F89788D0C
:100E3000CE0101960E942507EF81F885E00FF11F92
:100E400010822E96E4E00C94E009ABE0B0E0EBE217
:100E5000F7E00C94B6096C017B018A01FC01178252
:100E60001682838181FFCCC1CE0101963C01F6013F
:100E70009381F70193FD859193FF81917F018823F1
:100E800009F4BAC1853239F493FD859193FF8191BC
:100E90007F01853229F4B60190E00E941C09E7CF5A
:100EA000912C212C312CFFE1F315D8F08B3279F005
:100EB00038F4803279F08332A1F4232D20611DC0F3
:100EC0008D3261F0803369F4232D216016C0832DAB
:100ED0008260382EE32DE4603E2E2AC0F32DF860A8
:100EE0001DC037FC2DC020ED280F2A3040F08E3277
:100EF000B9F436FC81C1232D2064322E19C036FE90
:100F000006C08AE0989E200D1124922E11C0EAE0BE
:100F10002E9E200D1124222EF32DF0623F2E08C0AC
:100F20008C3621F4832D8068382E02C0883641F437
:100F3000F70193FD859193FF81917F018111B3CFDB
:100F4000982F9F7D9554933028F40C5F1F4F9FE39B
:100F500099830DC0833631F0833771F0833509F002
:100F600059C021C0F801808189830E5F1F4F8824FA
:100F70008394912C530113C02801F2E04F0E511CB1
:100F8000F801A080B18036FE03C0692D70E002C078
:100F90006FEF7FEFC5010E9411094C018201F32D13
:100FA000FF773F2E16C0280122E0420E511CF801A7
:100FB000A080B18036FE03C0692D70E002C06FEFE3
:100FC0007FEFC5010E9406094C01F32DF0683F2E0A
:100FD000820133FC1BC0822D90E088169906B0F484
:100FE000B60180E290E00E941C092A94F4CFF5013A
:100FF00037FC859137FE81915F01B60190E00E9438
:101000001C0921102A9421E0821A9108811491046C
:1010100071F7E8C0843611F0893641F5F80137FEE2
:1010200007C060817181828193810C5F1F4F08C06E
:1010300060817181072E000C880B990B0E5F1F4F8A
:10104000F32DFF763F2E97FF09C090958095709500
:1010500061957F4F8F4F9F4FF0683F2E2AE030E021
:10106000A3010E945809882E861845C0853731F49F
:10107000232D2F7EB22E2AE030E025C0932D997FBC
:10108000B92E8F36C1F018F4883579F0B5C08037A5
:1010900019F0883721F0B0C0E92FE061BE2EB4FE10
:1010A0000DC0FB2DF460BF2E09C034FE0AC0292FED
:1010B0002660B22E06C028E030E005C020E130E016
:1010C00002C020E132E0F801B7FE07C06081718103
:1010D000828193810C5F1F4F06C06081718180E027
:1010E00090E00E5F1F4FA3010E945809882E8618BA
:1010F000FB2DFF773F2E36FE0DC0232D2E7FA22E17
:10110000891458F434FE0BC032FC09C0832D8E7E46
:10111000A82E05C0B82CA32C03C0B82C01C0B92C34
:10112000A4FE0FC0FE01E80DF11D8081803321F483
:101130009A2D997EA92E09C0A2FE06C0B394B3943D
:1011400004C08A2D867809F0B394A3FC11C0A0FED8
:1011500006C0B21488F4280C922C9B180EC0B2144E
:1011600060F4B60180E290E00E941C09B394F7CFCE
:10117000B21418F42B1802C0982C212CA4FE10C015
:10118000B60180E390E00E941C09A2FE17C0A1FCFA
:1011900003C088E790E002C088E590E0B6010CC08B
:1011A0008A2D867859F0A1FE02C08BE201C080E250
:1011B000A7FC8DE2B60190E00E941C09891438F466
:1011C000B60180E390E00E941C099A94F7CF8A94BC
:1011D000F301E80DF11D8081B60190E00E941C0929
:1011E0008110F5CF222009F442CEB60180E290E0D2
:1011F0000E941C092A94F6CFF6018681978102C0CD
:101200008FEF9FEF2B96E2E10C94D209FC01059041
:10121000615070400110D8F7809590958E0F9F1FF8
:101220000895FC016150704001900110D8F780953D
:1012300090958E0F9F1F08950F931F93CF93DF9369
:10124000FB01238121FD03C08FEF9FEF2CC022FF04
:1012500016C046815781248135814217530744F4D3
:10126000A081B1819D012F5F3F4F318320838C93FB
:10127000268137812F5F3F4F3783268314C08B0130
:10128000EC01FB010084F185E02D0995892BE1F645
:10129000D80116968D919C911797019617969C935D
:1012A0008E931697CE01DF91CF911F910F910895E4
:1012B000FA01AA27283051F1203181F1E8946F9387
:1012C0006E7F6E5F7F4F8F4F9F4FAF4FB1E03ED02D
:1012D000B4E03CD0670F781F891F9A1FA11D680FCB
:1012E000791F8A1F911DA11D6A0F711D811D911DFE
:1012F000A11D20D009F468943F912AE0269F112473
:101300003019305D3193DEF6CF010895462F4770D6
:10131000405D4193B3E00FD0C9F7F6CF462F4F7031
:10132000405D4A3318F0495D31FD4052419302D08F
:10133000A9F7EACFB4E0A695979587957795679535
:10134000BA95C9F700976105710508959B01AC0135
:101350000A2E06945795479537952795BA95C9F75C
:10136000620F731F841F951FA01D08952F923F9237
:101370004F925F926F927F928F929F92AF92BF92A5
:10138000CF92DF92EF92FF920F931F93CF93DF9351
:10139000CDB7DEB7CA1BDB0B0FB6F894DEBF0FBEAE
:1013A000CDBF09942A88398848885F846E847D84FB
:1013B0008C849B84AA84B984C884DF80EE80FD80FD
:1013C0000C811B81AA81B981CE0FD11D0FB6F89473
:0E13D000DEBF0FBECDBFED010895F894FFCF34
:1013DE0001010153656C656363696F6E6520756EFF
:1013EE0061206F7063696F6E0D0A004F4E0D0A001B
:1013FE005345542054494D450D0A00534554204140
:10140E004C41524D0D0A004F46460D0A00414C41CB
:10141E00524D41210D0A00496E6772657365205465
:10142E0069656D706F3A0D0A0048483A4D4D3A5352
:10143E00532044442F4D4D2F41410D0A0056616CEF
:10144E006F72657320696E76616C69646F730D0AD5
:10145E00004572726F7220646520666F726D6174E2
:10146E006F0D0A004665636861207920686F7261AE
:10147E00207365746561646173210D0A00496E679E
:10148E007265736520416C61726D613A0D0A004898
:10149E00483A4D4D3A53530D0A00416C61726D61DD
:1014AE00206163746976616461210D0A00464543CB
:1014BE0048413A20253032752F253032752F253090
:1014CE00327520253032753A253032753A25303254
:0414DE00750D0A007E
:00000001FF
