S01600005450335F454E5452454741424C452E73726563FF
S11300000C943B000C9458000C9458000C94580029
S11300100C9458000C9458000C9458000C945800FC
S11300200C9458000C9458000C9458000C945800EC
S11300300C9458000C9458000C94E3030C9458004E
S11300400C9458000C9458000C9461030C949D0378
S11300500C9458000C9458000C9458000C945800BC
S11300600C9458000C9458009600A000AB00D300E8
S1130070DD00E800F20011241FBECFEFD8E0DEBFA0
S1130080CDBF11E0A0E0B1E0EAEAF0E102C00590E2
S11300900D92A437B107D9F721E0A4E7B1E001C07C
S11300A01D92AD3AB207E1F70E9430030C94530855
S11300B00C9400001092B90088E98093B80084E0A1
S11300C08093BC00089584EA8093BC008091BC00B6
S11300D08823E4F708958093BB0084E88093BC00F0
S11300E08091BC008823E4F70895811104C084EC56
S11300F08093BC0003C084E88093BC008091BC0062
S11301008823E4F78091BB00089584E98093BC00C0
S11301100895E09174018E2F90E08730910508F0E6
S11301206AC0FC01EC5CFF4F0C944F058091750193
S1130130813009F060C010927501809374010895B4
S113014080917501813009F056C01092750182E0EA
S113015080937401089580917501833079F018F4C7
S1130160823031F01DC0843079F0853099F018C0A8
S11301701092750183E080937401089510927501C3
S113018084E08093740108951092750185E0809352
S1130190740108951092750186E0809374010895A6
S11301A010927501089580910001813011F410922C
S11301B0000182E08093740108958091000181110F
S11301C003C081E08093000182E08093740108956C
S11301D080917501813079F41092750182E08093E9
S11301E07401089580917501813029F4109275018C
S11301F082E08093740108958091740108950E94AF
S113020047040E945A00789481E08093750182E04B
S113021091E00E94A504089582E191E00E94A50462
S11302208AE291E00E94A5048FE291E00E94A50475
S11302308AE391E00E94A50481E08093750186E43D
S113024091E00E94A5040895E1ECF0E080818068CB
S1130250808320E030E0A9C1E091AA01F0E0E956F2
S1130260FE4F80818F3461F58091AA0190E0019660
S113027062E170E00E943B05FC01E956FE4F80817B
S11302808E34F1F48091AA0190E0029662E170E06C
S11302900E943B05FC01E956FE4F80818D3081F4BC
S11302A0E9EAF1E0818190E0039662E170E00E9466
S11302B03B05818382E08093750121E030E075C1C4
S11302C0E091AA01F0E0E956FE4F80818F34D1F528
S11302D08091AA0190E0019662E170E00E943B05E2
S11302E0FC01E956FE4F8081863461F58091AA01B4
S11302F090E0029662E170E00E943B05FC01E95641
S1130300FE4F80818634F1F48091AA0190E0039637
S113031062E170E00E943B05FC01E956FE4F8081DA
S11303208D3081F4E9EAF1E0818190E0049662E1A4
S113033070E00E943B05818383E08093750121E096
S113034030E033C1E091AA01F0E0E956FE4F80812C
S1130350833509F093C08091AA0190E0019662E18F
S113036070E00E943B05FC01E956FE4F8081853414
S113037009F084C08091AA0190E0029662E170E0E5
S11303800E943B05FC01E956FE4F8081843509F04B
S113039075C08091AA0190E0039662E170E00E942A
S11303A03B05FC01E956FE4F8081803209F066C0AE
S11303B08091AA0190E0049662E170E00E943B05FE
S11303C0FC01E956FE4F8081813409F057C08091C9
S11303D0AA0190E0059662E170E00E943B05FC01F1
S11303E0E956FE4F80818C3409F048C08091AA01FF
S11303F090E0069662E170E00E943B05FC01E9563C
S1130400FE4F80818134D1F58091AA0190E0079656
S113041062E170E00E943B05FC01E956FE4F8081D9
S1130420823561F58091AA0190E0089662E170E05E
S11304300E943B05FC01E956FE4F80818D34F1F4A6
S11304408091AA0190E0099662E170E00E943B0568
S1130450FC01E956FE4F80818D3081F4E9EAF1E038
S1130460818190E00A9662E170E00E943B058183FD
S113047085E08093750121E030E097C0E091AA0106
S1130480F0E0E956FE4F8081833509F084C0809105
S1130490AA0190E0019662E170E00E943B05FC0134
S11304A0E956FE4F8081853409F075C08091AA0118
S11304B090E0029662E170E00E943B05FC01E9567F
S11304C0FE4F8081843509F066C08091AA0190E0D6
S11304D0039662E170E00E943B05FC01E956FE4F81
S11304E08081803209F057C08091AA0190E004967F
S11304F062E170E00E943B05FC01E956FE4F8081F9
S1130500843509F048C08091AA0190E0059662E123
S113051070E00E943B05FC01E956FE4F808189345E
S1130520D1F58091AA0190E0069662E170E00E9404
S11305303B05FC01E956FE4F80818D3461F58091C5
S1130540AA0190E0079662E170E00E943B05FC017D
S1130550E956FE4F80818534F1F48091AA0190E040
S1130560089662E170E00E943B05FC01E956FE4FEB
S113057080818D3081F4E9EAF1E0818190E009968F
S113058062E170E00E943B05818384E08093750101
S113059021E030E00AC0E9EAF1E0818190E00196CF
S11305A062E170E00E943B0581832115310509F465
S11305B053CEE1ECF0E080818F7780830895CF9271
S11305C0DF92EF92FF920F931F93CF93DF93CDB7F8
S11305D0DEB76A970FB6F894DEBF0FBECDBFCE016B
S11305E04A967C018E01075E1F4F9E01285E3F4F95
S11305F0AE01495E5F4FBE016A5E7F4F05970E9460
S1130600F9036701C8017801015011099E01295EAF
S11306103F4FAE014A5E5F4FBE016B5E7F4F48970E
S11306200E94E004CE0101960E94A50481E080931B
S113063001016A960FB6F894DEBF0FBECDBFDF91FD
S1130640CF911F910F91FF90EF90DF90CF9008957D
S113065081E080937501089581E080937501089588
S1130660E9EAF1E010821182EBEAF1E011821082F2
S113067080910101811105C00E94DF0281E0809315
S113068001010E94FC0080937601823089F028F4F5
S1130690882341F0813049F0EBCF853079F0863002
S11306A051F0E6CF0E94FF00E3CF0E940C01E0CF9F
S11306B00E942401DDCF0E942C03DACF0E9428037C
S11306C0D7CF1F920F920FB60F9211242F933F93FF
S11306D04F935F936F937F938F939F93AF93BF9346
S11306E0EF93FF932091C600E9EAF1E0808190E066
S11306F0019662E170E00E943B059181981739F000
S1130700DF01E081F0E0E956FE4F20838C93809175
S1130710750181110E948900FF91EF91BF91AF9102
S11307209F918F917F916F915F914F913F912F9105
S11307300F900FBE0F901F9018951F920F920FB637
S11307400F9211242F933F934F935F936F937F9353
S11307508F939F93AF93BF93EF93FF93ABEAB1E073
S11307601196EC911197F0E0E958FE4F8081809347
S1130770C60011968C9190E001968F719078992320
S113078024F40197806E9F6F01968093AC01809151
S11307907501813039F40E948900E1ECF0E0808138
S11307A08F7D8083FF91EF91BF91AF919F918F9146
S11307B07F916F915F914F913F912F910F900FBE59
S11307C00F901F9018951F920F920FB60F9211243D
S11307D08F9380910001811106C0809101018130C5
S11307E011F4109201018F910F900FBE0F901F9082
S11307F018958F929F92AF92BF92CF92DF92EF9211
S1130800FF920F931F93CF93DF934C015B016A0117
S1130810E9010E94630080ED0E946B0080E00E9469
S11308206B000E9485000E94630081ED0E946B00B2
S113083080E00E947500F401808380E00E947500CE
S1130840F501808380E00E947500F601808380E0DA
S11308500E94750080E00E947500888380E00E94F9
S11308607500F801808381E00E947500F7018083A0
S11308700E948500DF91CF911F910F91FF90EF901F
S1130880DF90CF90BF90AF909F908F9008958AB1E2
S113089082608AB98AB18E7F8AB9E2ECF0E0808105
S11308A08660808387E68093C400E1ECF0E0808179
S11308B0886180830895982F92959F70990F292FAE
S11308C0220F220F920F8F70890F08958F929F929B
S11308D0AF92BF92CF92DF92EF92FF920F931F934A
S11308E0CF93DF934C015B016A01E901FC01808134
S11308F00E945B04F4018083F50180810E945B0403
S1130900F5018083F60180810E945B04F6018083F7
S113091088810E945B048883F80180810E945B04C3
S1130920F8018083F70180810E945B04F7018083D2
S1130930DF91CF911F910F91FF90EF90DF90CF90B7
S1130940BF90AF909F908F90089560E02DC020914C
S1130950AB0130E02F5F3F4F2F713078332334F4F5
S113096021503109206E3F6F2F5F3F4F4091AC0102
S113097050E02417350759F3ABEAB1E0EC91F0E00D
S1130980E958FE4F70832C9130E02F5F3F4F2F7159
S11309903078332334F421503109206E3F6F2F5FB8
S11309A03F4F2093AB016F5FFC01E60FF11D708197
S11309B07111CDCFE1ECF0E08081806280830895F5
S11309C02F923F924F925F926F927F928F929F925B
S11309D0AF92BF92CF92DF92EF92FF920F931F9349
S11309E0CF93DF93382E292E3B014A015901280168
S11309F0E70176018E019201A501B401C3010E94B1
S1130A006604F3015081F4014081F5013081F6015F
S1130A1020819881F20180811F925F931F924F93EE
S1130A201F923F931F922F931F929F931F928F9316
S1130A308CE491E09F938F932F923F920E946905DB
S1130A408DB79EB740960FB6F8949EBF0FBE8DBF6C
S1130A50DF91CF911F910F91FF90EF90DF90CF9096
S1130A60BF90AF909F908F907F906F905F904F90CA
S1130A703F902F90089597FB072E16F4009407D00B
S1130A8077FD09D00E94550507FC05D03EF49095EA
S1130A9081959F4F0895709561957F4F0895EE0F4E
S1130AA0FF1F0590F491E02D0994AA1BBB1B51E193
S1130AB007C0AA1FBB1FA617B70710F0A61BB70BCA
S1130AC0881F991F5A95A9F780959095BC01CD016F
S1130AD00895AEE0B0E0EFE6F5E00C942A080D8945
S1130AE01E8986E08C831A8309838FEF9FE79E8398
S1130AF08D83AE01475E5F4F6F89788DCE0101967D
S1130B000E948B05EF81F885E00FF11F10822E966D
S1130B10E4E00C944608ABE0B0E0E1E9F5E00C94C5
S1130B201C086C017B018A01FC01178216828381F7
S1130B3081FFCCC1CE0101963C01F6019381F701FE
S1130B4093FD859193FF81917F01882309F4BAC1B4
S1130B50853239F493FD859193FF81917F0185322C
S1130B6029F4B60190E00E948207E7CF912C212C52
S1130B70312CFFE1F315D8F08B3279F038F4803260
S1130B8079F08332A1F4232D20611DC08D3261F0F0
S1130B90803369F4232D216016C0832D8260382EA2
S1130BA0E32DE4603E2E2AC0F32DF8601DC037FC0F
S1130BB02DC020ED280F2A3040F08E32B9F436FCD7
S1130BC081C1232D2064322E19C036FE06C08AE06E
S1130BD0989E200D1124922E11C0EAE02E9E200D25
S1130BE01124222EF32DF0623F2E08C08C3621F4FE
S1130BF0832D8068382E02C0883641F4F70193FDB6
S1130C00859193FF81917F018111B3CF982F9F7DAF
S1130C109554933028F40C5F1F4F9FE399830DC0C4
S1130C20833631F0833771F0833509F059C021C020
S1130C30F801808189830E5F1F4F88248394912C4F
S1130C40530113C02801F2E04F0E511CF801A0809B
S1130C50B18036FE03C0692D70E002C06FEF7FEFF4
S1130C60C5010E9477074C018201F32DFF773F2EC7
S1130C7016C0280122E0420E511CF801A080B18068
S1130C8036FE03C0692D70E002C06FEF7FEFC5012F
S1130C900E946C074C01F32DF0683F2E820133FC57
S1130CA01BC0822D90E088169906B0F4B60180E24C
S1130CB090E00E9482072A94F4CFF50137FC8591D5
S1130CC037FE81915F01B60190E00E9482072110F6
S1130CD02A9421E0821A91088114910471F7E8C0E2
S1130CE0843611F0893641F5F80137FE07C060817A
S1130CF07181828193810C5F1F4F08C06081718173
S1130D00072E000C880B990B0E5F1F4FF32DFF76F7
S1130D103F2E97FF09C090958095709561957F4F00
S1130D208F4F9F4FF0683F2E2AE030E0A3010E94CE
S1130D30BE07882E861845C0853731F4232D2F7EB3
S1130D40B22E2AE030E025C0932D997FB92E8F363C
S1130D50C1F018F4883579F0B5C0803719F08837B8
S1130D6021F0B0C0E92FE061BE2EB4FE0DC0FB2D12
S1130D70F460BF2E09C034FE0AC0292F2660B22EAB
S1130D8006C028E030E005C020E130E002C020E1E8
S1130D9032E0F801B7FE07C06081718182819381DE
S1130DA00C5F1F4F06C06081718180E090E00E5F90
S1130DB01F4FA3010E94BE07882E8618FB2DFF77C4
S1130DC03F2E36FE0DC0232D2E7FA22E891458F4FB
S1130DD034FE0BC032FC09C0832D8E7EA82E05C0C4
S1130DE0B82CA32C03C0B82C01C0B92CA4FE0FC08E
S1130DF0FE01E80DF11D8081803321F49A2D997E46
S1130E00A92E09C0A2FE06C0B394B39404C08A2DCF
S1130E10867809F0B394A3FC11C0A0FE06C0B214F6
S1130E2088F4280C922C9B180EC0B21460F4B601FE
S1130E3080E290E00E948207B394F7CFB21418F4D2
S1130E402B1802C0982C212CA4FE10C0B60180E3FC
S1130E5090E00E948207A2FE17C0A1FC03C088E7AD
S1130E6090E002C088E590E0B6010CC08A2D867837
S1130E7059F0A1FE02C08BE201C080E2A7FC8DE222
S1130E80B60190E00E948207891438F4B60180E329
S1130E9090E00E9482079A94F7CF8A94F301E80DB8
S1130EA0F11D8081B60190E00E9482078110F5CF88
S1130EB0222009F442CEB60180E290E00E9482072B
S1130EC02A94F6CFF6018681978102C08FEF9FEFB7
S1130ED02B96E2E10C943808FC01059061507040B7
S1130EE00110D8F7809590958E0F9F1F0895FC01EF
S1130EF06150704001900110D8F7809590958E0F45
S1130F009F1F08950F931F93CF93DF93FB012381BA
S1130F1021FD03C08FEF9FEF2CC022FF16C0468136
S1130F205781248135814217530744F4A081B1814C
S1130F309D012F5F3F4F318320838C93268137811E
S1130F402F5F3F4F3783268314C08B01EC01FB01D5
S1130F500084F185E02D0995892BE1F6D8011696D8
S1130F608D919C911797019617969C938E93169743
S1130F70CE01DF91CF911F910F910895FA01AA2715
S1130F80283051F1203181F1E8946F936E7F6E5FC8
S1130F907F4F8F4F9F4FAF4FB1E03ED0B4E03CD076
S1130FA0670F781F891F9A1FA11D680F791F8A1F59
S1130FB0911DA11D6A0F711D811D911DA11D20D0C0
S1130FC009F468943F912AE0269F11243019305D7A
S1130FD03193DEF6CF010895462F4770405D41936B
S1130FE0B3E00FD0C9F7F6CF462F4F70405D4A33B8
S1130FF018F0495D31FD4052419302D0A9F7EACF80
S1131000B4E0A6959795879577956795BA95C9F7AE
S113101000976105710508959B01AC010A2E0694A1
S11310205795479537952795BA95C9F7620F731F5A
S1131030841F951FA01D08952F923F924F925F9297
S11310406F927F928F929F92AF92BF92CF92DF92D4
S1131050EF92FF920F931F93CF93DF93CDB7DEB739
S1131060CA1BDB0B0FB6F894DEBF0FBECDBF0994CD
S11310702A88398848885F846E847D848C849B8424
S1131080AA84B984C884DF80EE80FD800C811B8132
S1131090AA81B981CE0FD11D0FB6F894DEBF0FBE61
S10D10A0CDBFED010895F894FFCFD1
S11310AA01014269656E76656E69646F203A440D82
S11310BA0A0053656C656363696F6E6520756E61BA
S11310CA206F7063696F6E0D0A004F4E0D0A00534C
S11310DA45542054494D450D0A0053455420414C6A
S11310EA41524D0D0A004F46460D0A0046454348F3
S11310FA413A20253032752F253032752F2530326A
S113110A7520253032753A253032753A25303275D4
S107111A0D0A0000B6
S9030000FC
